{
  "_format": "hh-sol-artifact-1",
  "contractName": "TokenDistributorV3",
  "sourceName": "contracts/Contract.sol",
  "abi": [
    {
      "inputs": [
        {
          "internalType": "address",
          "name": "_token",
          "type": "address"
        }
      ],
      "stateMutability": "nonpayable",
      "type": "constructor"
    },
    {
      "inputs": [],
      "name": "owner",
      "outputs": [
        {
          "internalType": "address payable",
          "name": "",
          "type": "address"
        }
      ],
      "stateMutability": "view",
      "type": "function"
    },
    {
      "inputs": [],
      "name": "token",
      "outputs": [
        {
          "internalType": "contract IERC20",
          "name": "",
          "type": "address"
        }
      ],
      "stateMutability": "view",
      "type": "function"
    },
    {
      "inputs": [],
      "name": "withdrawMatic",
      "outputs": [],
      "stateMutability": "nonpayable",
      "type": "function"
    },
    {
      "inputs": [],
      "name": "withdrawTokens",
      "outputs": [],
      "stateMutability": "nonpayable",
      "type": "function"
    },
    {
      "stateMutability": "payable",
      "type": "receive"
    }
  ],
  "bytecode": "0x608060405234801561001057600080fd5b506040516107af3803806107af83398101604081905261002f91610062565b60008054336001600160a01b031991821617909155600180549091166001600160a01b0392909216919091179055610092565b60006020828403121561007457600080fd5b81516001600160a01b038116811461008b57600080fd5b9392505050565b61070e806100a16000396000f3fe6080604052600436106100435760003560e01c8063810074c61461028e5780638d8f2adb146102a35780638da5cb5b146102b8578063fc0c546a146102f457600080fd5b366102895767016345785d8a00003410156100b35760405162461bcd60e51b815260206004820152602560248201527f53656e642065786163746c7920302e31204d4154494320746f2067657420746f60448201526435b2b7399760d91b60648201526084015b60405180910390fd5b6001546040516370a0823160e01b81523060048201526000916001600160a01b0316906370a0823190602401602060405180830381865afa1580156100fc573d6000803e3d6000fd5b505050506040513d601f19601f82011682018060405250810190610120919061064d565b9050600081116101725760405162461bcd60e51b815260206004820152601f60248201527f436f6e747261637420686173206e6f20746f6b656e7320746f20676976652e0060448201526064016100aa565b60008161017d610314565b6101879190610666565b610192906001610688565b60015460405163a9059cbb60e01b8152336004820152602481018390529192506001600160a01b03169063a9059cbb906044016020604051808303816000875af11580156101e4573d6000803e3d6000fd5b505050506040513d601f19601f8201168201806040525081019061020891906106af565b61024d5760405162461bcd60e51b81526020600482015260166024820152752a37b5b2b7103a3930b739b332b9103330b4b632b21760511b60448201526064016100aa565b600080546040516001600160a01b03909116913480156108fc02929091818181858888f19350505050158015610287573d6000803e3d6000fd5b005b600080fd5b34801561029a57600080fd5b5061028761047a565b3480156102af57600080fd5b5061028761050c565b3480156102c457600080fd5b506000546102d8906001600160a01b031681565b6040516001600160a01b03909116815260200160405180910390f35b34801561030057600080fd5b506001546102d8906001600160a01b031681565b6001546040516370a0823160e01b8152306004820152600091624c4b40916001600160a01b03909116906370a0823190602401602060405180830381865afa158015610364573d6000803e3d6000fd5b505050506040513d601f19601f82011682018060405250810190610388919061064d565b1015610443576001546040516370a0823160e01b8152306004820152614e2091449142916001600160a01b0316906370a08231906024015b602060405180830381865afa1580156103dd573d6000803e3d6000fd5b505050506040513d601f19601f82011682018060405250810190610401919061064d565b60408051602081019490945283019190915260608201526080016040516020818303038152906040528051906020012060001c61043e9190610666565b905090565b6001546040516370a0823160e01b8152306004820152620493e091449142916001600160a01b0316906370a08231906024016103c0565b6000546001600160a01b031633146104cf5760405162461bcd60e51b815260206004820152601860248201527727b7363c9037bbb732b91031b0b7103bb4ba34323930bb9760411b60448201526064016100aa565b600080546040516001600160a01b03909116914780156108fc02929091818181858888f19350505050158015610509573d6000803e3d6000fd5b50565b6000546001600160a01b031633146105615760405162461bcd60e51b815260206004820152601860248201527727b7363c9037bbb732b91031b0b7103bb4ba34323930bb9760411b60448201526064016100aa565b6001546040516370a0823160e01b81523060048201526000916001600160a01b0316906370a0823190602401602060405180830381865afa1580156105aa573d6000803e3d6000fd5b505050506040513d601f19601f820116820180604052508101906105ce919061064d565b60015460005460405163a9059cbb60e01b81526001600160a01b03918216600482015260248101849052929350169063a9059cbb906044016020604051808303816000875af1158015610625573d6000803e3d6000fd5b505050506040513d601f19601f8201168201806040525081019061064991906106af565b5050565b60006020828403121561065f57600080fd5b5051919050565b60008261068357634e487b7160e01b600052601260045260246000fd5b500690565b808201808211156106a957634e487b7160e01b600052601160045260246000fd5b92915050565b6000602082840312156106c157600080fd5b815180151581146106d157600080fd5b939250505056fea2646970667358221220faca75bc8e68438b6bd5d817cd86f86384ea2cd22ea289cbd117333f5c77672a64736f6c63430008110033",
  "linkReferences": {},
  "deployedLinkReferences": {}
}