{
  "_format": "hh-sol-artifact-1",
  "contractName": "TokenDistributorV1",
  "sourceName": "contracts/Contract.sol",
  "abi": [
    {
      "inputs": [
        {
          "internalType": "address",
          "name": "_token",
          "type": "address"
        }
      ],
      "stateMutability": "nonpayable",
      "type": "constructor"
    },
    {
      "inputs": [],
      "name": "DECIMALS_MULTIPLIER",
      "outputs": [
        {
          "internalType": "uint256",
          "name": "",
          "type": "uint256"
        }
      ],
      "stateMutability": "view",
      "type": "function"
    },
    {
      "inputs": [],
      "name": "decimals",
      "outputs": [
        {
          "internalType": "uint8",
          "name": "",
          "type": "uint8"
        }
      ],
      "stateMutability": "view",
      "type": "function"
    },
    {
      "inputs": [],
      "name": "owner",
      "outputs": [
        {
          "internalType": "address payable",
          "name": "",
          "type": "address"
        }
      ],
      "stateMutability": "view",
      "type": "function"
    },
    {
      "inputs": [],
      "name": "token",
      "outputs": [
        {
          "internalType": "contract IERC20",
          "name": "",
          "type": "address"
        }
      ],
      "stateMutability": "view",
      "type": "function"
    },
    {
      "inputs": [],
      "name": "withdrawMatic",
      "outputs": [],
      "stateMutability": "nonpayable",
      "type": "function"
    },
    {
      "inputs": [],
      "name": "withdrawTokens",
      "outputs": [],
      "stateMutability": "nonpayable",
      "type": "function"
    },
    {
      "stateMutability": "payable",
      "type": "receive"
    }
  ],
  "bytecode": "0x608060405234801561001057600080fd5b506040516108ad3803806108ad83398101604081905261002f91610062565b60008054336001600160a01b031991821617909155600180549091166001600160a01b0392909216919091179055610092565b60006020828403121561007457600080fd5b81516001600160a01b038116811461008b57600080fd5b9392505050565b61080c806100a16000396000f3fe6080604052600436106100595760003560e01c8063313ce567146102a4578063810074c6146102d05780638d8f2adb146102e55780638da5cb5b146102fa578063bbdd366a14610332578063fc0c546a1461035557600080fd5b3661029f57674563918244f400003410156100c95760405162461bcd60e51b815260206004820152602560248201527f53656e642065786163746c7920302e31204d4154494320746f2067657420746f60448201526435b2b7399760d91b60648201526084015b60405180910390fd5b6001546040516370a0823160e01b81523060048201526000916001600160a01b0316906370a0823190602401602060405180830381865afa158015610112573d6000803e3d6000fd5b505050506040513d601f19601f820116820180604052508101906101369190610639565b9050600081116101885760405162461bcd60e51b815260206004820152601f60248201527f436f6e747261637420686173206e6f20746f6b656e7320746f20676976652e0060448201526064016100c0565b600081610193610375565b61019d9190610652565b6101a890600161068a565b60015460405163a9059cbb60e01b8152336004820152602481018390529192506001600160a01b03169063a9059cbb906044016020604051808303816000875af11580156101fa573d6000803e3d6000fd5b505050506040513d601f19601f8201168201806040525081019061021e91906106a3565b6102635760405162461bcd60e51b81526020600482015260166024820152752a37b5b2b7103a3930b739b332b9103330b4b632b21760511b60448201526064016100c0565b600080546040516001600160a01b03909116913480156108fc02929091818181858888f1935050505015801561029d573d6000803e3d6000fd5b005b600080fd5b3480156102b057600080fd5b506102b9601281565b60405160ff90911681526020015b60405180910390f35b3480156102dc57600080fd5b5061029d610457565b3480156102f157600080fd5b5061029d6104e9565b34801561030657600080fd5b5060005461031a906001600160a01b031681565b6040516001600160a01b0390911681526020016102c7565b34801561033e57600080fd5b5061034761062a565b6040519081526020016102c7565b34801561036157600080fd5b5060015461031a906001600160a01b031681565b6001546040516370a0823160e01b81523060048201526000918291449142916001600160a01b03909116906370a0823190602401602060405180830381865afa1580156103c6573d6000803e3d6000fd5b505050506040513d601f19601f820116820180604052508101906103ea9190610639565b604080516020810194909452830191909152606082015260800160408051601f1981840301815291905280516020909101209050600061042d6204937d83610652565b61043890606461068a565b90506104466012600a6107b0565b61045090826107bf565b9250505090565b6000546001600160a01b031633146104ac5760405162461bcd60e51b815260206004820152601860248201527727b7363c9037bbb732b91031b0b7103bb4ba34323930bb9760411b60448201526064016100c0565b600080546040516001600160a01b03909116914780156108fc02929091818181858888f193505050501580156104e6573d6000803e3d6000fd5b50565b6000546001600160a01b0316331461053e5760405162461bcd60e51b815260206004820152601860248201527727b7363c9037bbb732b91031b0b7103bb4ba34323930bb9760411b60448201526064016100c0565b6001546040516370a0823160e01b81523060048201526000916001600160a01b0316906370a0823190602401602060405180830381865afa158015610587573d6000803e3d6000fd5b505050506040513d601f19601f820116820180604052508101906105ab9190610639565b60015460005460405163a9059cbb60e01b81526001600160a01b03918216600482015260248101849052929350169063a9059cbb906044016020604051808303816000875af1158015610602573d6000803e3d6000fd5b505050506040513d601f19601f8201168201806040525081019061062691906106a3565b5050565b6106366012600a6107b0565b81565b60006020828403121561064b57600080fd5b5051919050565b60008261066f57634e487b7160e01b600052601260045260246000fd5b500690565b634e487b7160e01b600052601160045260246000fd5b8082018082111561069d5761069d610674565b92915050565b6000602082840312156106b557600080fd5b815180151581146106c557600080fd5b9392505050565b600181815b808511156107075781600019048211156106ed576106ed610674565b808516156106fa57918102915b93841c93908002906106d1565b509250929050565b60008261071e5750600161069d565b8161072b5750600061069d565b8160018114610741576002811461074b57610767565b600191505061069d565b60ff84111561075c5761075c610674565b50506001821b61069d565b5060208310610133831016604e8410600b841016171561078a575081810a61069d565b61079483836106cc565b80600019048211156107a8576107a8610674565b029392505050565b60006106c560ff84168361070f565b808202811582820484141761069d5761069d61067456fea2646970667358221220aa48baad153fa8cfc249867b09bcb501fb930153999186ceca15a3946772b0b964736f6c63430008110033",
  "linkReferences": {},
  "deployedLinkReferences": {}
}